:10000000B2C40000D7C40000D5C40000D3C40000AF
:10001000D1C40000CFC40000CDC40000CBC4000098
:10002000C9C40000C7C400000C94FF0B0C94A20AC2
:10003000C1C40000BFC40000BDC40000BBC40000B8
:10004000B9C400000C94E414B5C40000B3C40000AB
:10005000B1C40000AFC40000ADC400003DC7000043
:10006000A9C40000A7C40000A5C40000A3C40000E8
:10007000A1C400009FC400009DC400009BC40000F8
:100080000C94571597C4000095C4000093C4000059
:1000900091C400008FC400008DC400008BC4000018
:1000A00089C4000087C4000085C40000BE16C316C2
:1000B000C816D216DC16261726172617E616F016CF
:1000C000FA16041711172617191746174917381764
:1000D0003C1742176A176A176A174D1751175517B9
:1000E0005B175F176A17651700800181020383049D
:1000F00084058506FF0002040507090B0C0E10118C
:10010000131517181A1C1D1F2123242628292B2DEF
:100110002F3032343537393B3C3E40414345474828
:1001200006011501260137014A015D0172018801AE
:100130009F01B801D201EE010B022A024B026E02AE
:100140009302BA02E40210033F037003A403DC032A
:10015000170455049704DD0427057505C805200616
:100160007D06E0064907B8072D08A9082D09B90939
:100170004D0AEA0A900B400CFA0CC00D910E6F0F5D
:100180005A1053115B1272139A14D4152017801849
:10019000F519801B231DDE1EB420A622B524E426FB
:1001A0003429A72B402E0031EA330037453ABC3DB5
:1001B00068414C456B49C84D68524F57805C00629E
:1001C00012010002EF02014041233600000101024A
:1001D000030112010002000000404123360000012B
:1001E0000102030141726475696E6F204C4C43003B
:1001F00041726475696E6F204C656F6E6172646FD9
:100200000004030904080B000202020100090400B3
:100210000001020200000524001001052401010173
:10022000042402060524060001070581031000408E
:1002300009040100020A0000000705020240000054
:1002400007058302400000F0F89C8E8783878E9C10
:10025000F8F00000FEFF0303030303070EFCF800A1
:1002600000FEFF0303030303070EFCF80000FFFF7B
:1002700000000000000000FFFF0000FEFF838383FA
:100280008383C7EE7C380000F8FC0E0703030307E6
:100290000EFCF800003F7FE0C08080C0E07F3FFFA1
:1002A000FF01010101010101FFFF0000FFFF0C0C34
:1002B0000C0C1C3E77E3C100007FFFC0C0C0C0C073
:1002C000E0703F1F00001F3F70E0C0C0C0E0703F03
:1002D0001F00007FFFC1C1C1C1C1E3773E1C000008
:1002E0001F3F70E0C0C0C0E0703F1F000000000072
:1002F00001FFFF0100000000000000003E5B4F5BBB
:100300003E3E6B4F6B3E1C3E7C3E1C183C7E3C18B8
:100310001C577D571C1C5E7F5E1C00183C1800FF9C
:10032000E7C3E7FF0018241800FFE7DBE7FF3048CA
:100330003A060E2629792926407F050507407F05C4
:10034000253F5A3CE73C5A7F3E1C1C08081C1C3EBB
:100350007F14227F22145F5F005F5F06097F017FA9
:10036000006689956A606060606094A2FFA294084C
:10037000047E040810207E201008082A1C08081C8F
:100380002A08081E101010100C1E0C1E0C30383ECF
:100390003830060E3E0E06000000000000005F0030
:1003A000000007000700147F147F14242A7F2A12FC
:1003B00023130864623649562050000807030000E2
:1003C0001C2241000041221C002A1C7F1C2A080814
:1003D0003E08080080703000080808080800006027
:1003E000600020100804023E5149453E00427F4013
:1003F0000072494949462141494D331814127F1072
:1004000027454545393C4A494931412111090736BB
:1004100049494936464949291E0000140000004058
:100420003400000008142241141414141400412252
:10043000140802015909063E415D594E7C12111201
:100440007C7F494949363E414141227F4141413EFD
:100450007F494949417F090909013E414151737F63
:100460000808087F00417F41002040413F017F088C
:100470001422417F404040407F021C027F7F0408DD
:10048000107F3E4141413E7F090909063E4151210D
:100490005E7F09192946264949493203017F010334
:1004A0003F4040403F1F2040201F3F4038403F63B7
:1004B0001408146303047804036159494D43007F11
:1004C0004141410204081020004141417F040201E2
:1004D0000204404040404000030708002054547884
:1004E000407F284444383844444428384444287FD2
:1004F000385454541800087E090218A4A49C787F2C
:100500000804047800447D40002040403D007F10F6
:1005100028440000417F40007C047804787C080473
:1005200004783844444438FC182424181824241827
:10053000FC7C08040408485454542404043F442414
:100540003C4040207C1C2040201C3C4030403C442F
:10055000281028444C9090907C4464544C440008EB
:100560003641000000770000004136080002010219
:1005700004023C2623263C1EA1A161123A404020E1
:100580007A3854545559215555794121545478415C
:10059000215554784020545579400C1E527212391E
:1005A00055555559395454545939555454580000D7
:1005B000457C410002457D420001457C40F02924F4
:1005C00029F0F0282528F07C545545002054547C0F
:1005D000547C0A097F4932494949323248484832F5
:1005E000324A4848303A4141217A3A424020780024
:1005F0009DA0A07D39444444393D4040403D3C24C9
:10060000FF2424487E4943662B2FFC2F2BFF09290A
:10061000F620C0887E090320545479410000447DAF
:10062000413048484A32384040227A007A0A0A72F9
:100630007D0D19317D2629292F28262929292630A3
:10064000484D4020380808080808080808382F10C6
:10065000C8ACBA2F102834FA00007B000008142A16
:10066000142222142A14089500220095AA0055008D
:10067000AAAA55AA55AA000000FF00101010FF00FA
:10068000141414FF001010FF00FF1010F010F014ED
:100690001414FC001414F700FF0000FF00FF1414F2
:1006A000F404FC141417101F10101F101F1414143E
:1006B0001F00101010F0000000001F101010101F7D
:1006C00010101010F010000000FF1010101010108B
:1006D000101010FF10000000FF140000FF00FF00CA
:1006E000001F10170000FC04F41414171017141442
:1006F000F404F40000FF00F714141414141414F795
:1007000000F7141414171410101F101F141414F4ED
:10071000141010F010F000001F101F0000001F1434
:10072000000000FC140000F010F01010FF10FF1487
:100730001414FF141010101F00000000F010FFFF31
:10074000FFFFFFF0F0F0F0F0FFFFFF0000000000FF
:10075000FFFF0F0F0F0F0F38444438447C2A2A3E06
:10076000147E02020606027E027E02635549416340
:100770003844443C04407E201E2006027E0202993A
:10078000A5E7A5991C2A492A1C4C7201724C304AD3
:100790004D4D303048784830BC625A463D3E49495C
:1007A00049007E0101017E2A2A2A2A2A44445F4404
:1007B0004440514A444040444A51400000FF010334
:1007C000E080FF000008086B6B08361236243606FE
:1007D0000F090F060000181800000010100030402C
:1007E000FF0101001F01011E00191D1712003C3CF2
:1007F0003C3C000000000006011501260137014ABB
:10080000015D01720188019F01B801D201EE010B67
:10081000022A024B026E029302BA02E40210033F64
:10082000037003A403DC03170455049704DD0427B5
:10083000057505C80520067D06E0064907B8072DA1
:1008400008A9082D09B9094D0AEA0A900B400CFACB
:100850000CC00D910E6F0F5A1053115B1272139A48
:1008600014D41520178018F519801B231DDE1EB423
:1008700020A622B524E4263429A72B402E0031EAF5
:10088000330037453ABC3D68414C456B49C84D681B
:10089000524F57805C006210111213151617181A68
:1008A0001C1D1F21232527292C2E3134373A3E4188
:1008B00045494E52575C62686E757B838B939CA54D
:1008C000AFB9C4D0DCE9F70301D5F08D14A1C8811C
:1008D000CFD9F1AF20001402130212021502070251
:1008E000080204010C010601000000000200090FCB
:1008F0000000030401000C000000000000000000E4
:1009000000000000000000000408020110408040C8
:100910001020408040800802040180402010020125
:100920001080102040402004040404040304050245
:10093000020202040302020202060606060606047A
:1009400004020202040400000000250028002B001D
:100950002E00310000000000240027002A002D0096
:10096000300019076C0D11241FBECFEFDAE0DEBF97
:10097000CDBF11E0A0E0B1E0E2E5F1E302C00590F7
:100980000D92A834B107D9F726E0A8E4B1E001C080
:100990001D92A534B207E1F719E0C6E6D9E004C01C
:1009A0002297FE010E947E18C236D107C9F786D26F
:1009B0000C94A71825CB89E991E00E9444116CE3BF
:1009C00089E991E00E944D0E89E991E00E9482122E
:1009D000E8E5F1E08FEF819391E0E839F907D9F785
:1009E000089589E991E00E94A90F40E050E060E09D
:1009F00070E089E991E00E94791263E171E089E990
:100A000091E058D242E350E062E370E089E991E07E
:100A10000E9479126BE171E089E991E04BD289E99A
:100A200091E00E94821268E089E991E00E948412BC
:100A3000882319F081E0809398010895CF93C82FFF
:100A400068E089E991E00E948412882379F0E091BE
:100A50005401F0915501EC50FF4FE491A0915601E3
:100A6000B0915701A85ABE4FEC0FEC93CF91089567
:100A70006F927F928F929F92AF92BF92CF92DF92AE
:100A8000EF92FF920F931F93CF93DF9389E991E049
:100A90000E94A90F809152019091530196958795DC
:100AA000282F2170E22E4FE150E020915401309127
:100AB0005501421B530B440F551F60915601709115
:100AC0005701660F771F02E022E089E991E00E945A
:100AD000730F0EE310E0C0E0D0E021E0A801BE01FA
:100AE00089E991E00E94930E2496C038D105A9F7B8
:100AF0000E501109083F8FEF180769F7C0E0D0E0EA
:100B0000EE24E39400E410E09E0140E050E0BE01DA
:100B100089E991E00E94BA0E6096C038D10581F74C
:100B200038E5C32E31E0D32EC0E0D0E04CE0F42E07
:100B300057E0752E6EE1862E912C7FE1A72EB12C09
:100B4000F60121916F012F3F39F1822F6F2D0E9405
:100B50000B18E92FF0E0E851FF4FE491822F6F2D41
:100B60000E940B18879D602C112463948E2F8F7721
:100B7000680EE7FF12C0A40146195109440F551F22
:100B8000EE24E3948A019E012F5F3F4FBE0189E965
:100B900091E00E94BA0E01C0612CA50146195109CD
:100BA000440F551FEE24E39402E022E0BE0189E9E0
:100BB00091E00E94730F2296C038D10509F0C0CF92
:100BC000E0915601F0915701E85AFE4FE081EF3F66
:100BD00079F0F0E0EE0FFF1FE05EFE4F659174913B
:100BE0002FEF3FEFA9018DE991E00E946E1404C040
:100BF0008DE991E00E94BC1368E089E991E00E94D0
:100C00008412882351F080915001909151010196F6
:100C1000909351018093500104C0109251011092A1
:100C200050018091500190915101019711F480E0A1
:100C300005DF60E289E991E00E948412882341F196
:100C400080914A0190914B01019690934B018093C2
:100C50004A01823091054CF086309105ECF065E058
:100C600070E00E942B18892BB9F480915601909165
:100C70005701019797FD05C0909357018093560146
:100C800004C0109257011092560180E0D7DE04C0D4
:100C900010924B0110924A0160E489E991E00E94B0
:100CA0008412882331F18091480190914901019685
:100CB0009093490180934801823091054CF0863031
:100CC0009105DCF065E070E00E942B18892BA9F4F7
:100CD000809156019091570101968034910514F04E
:100CE0008FE390E0909357018093560180E0A6DE59
:100CF00004C0109249011092480160E189E991E035
:100D00000E948412882369F180914C0190914D01D9
:100D1000019690934D0180934C01823091054CF0E7
:100D20008630910514F165E070E00E942B18892B44
:100D3000E1F48FEF83DE8091500190915101892B76
:100D4000A1F4809154019091550101979093550120
:100D50008093540197FF09C01092550110925401DD
:100D600004C010924D0110924C0160E889E991E0B5
:100D70000E948412882379F180914E0190914F0155
:100D8000019690934F0180934E01823091054CF073
:100D90008630910524F165E070E00E942B18892BC4
:100DA000F1F481E04BDE8091500190915101892B4B
:100DB000B1F48091540190915501019690935501A1
:100DC0008093540180975CF08FE190E090935501FF
:100DD0008093540104C010924F0110924E018091F3
:100DE00052019091530101969093530180935201C7
:100DF00089E991E0DF91CF911F910F91FF90EF90E2
:100E0000DF90CF90BF90AF909F908F907F906F902A
:100E10000C94821289E991E049D7882349F08091A6
:100E20009801882319F0813011F00895DACD20CE91
:100E3000089589E991E008C7CF92DF92EF92FF927F
:100E40000F931F93CF93DF937C016A01EB0100E0C6
:100E500010E00C151D0571F06991D701ED91FC9121
:100E60000190F081E02DC7010995892B19F00F5FE2
:100E70001F4FEFCFC801DF91CF911F910F91FF90CE
:100E8000EF90DF90CF9008956115710581F0DB013F
:100E90000D900020E9F7AD0141505109461B570B59
:100EA000DC01ED91FC910280F381E02D099480E05A
:100EB00090E00895E9CF0E949B180895BDD0FDDF12
:100EC0008CEB95E01ED577DDC0E0D0E0A3DF209766
:100ED000E9F30E940000FACF1F920F920FB60F9213
:100EE00011242F933F938F939F93AF93BF93809140
:100EF000B4059091B505A091B605B091B7053091B4
:100F0000B30523E0230F2D3720F40196A11DB11D59
:100F100005C026E8230F0296A11DB11D2093B3053D
:100F20008093B4059093B505A093B605B093B7052B
:100F30008091B8059091B905A091BA05B091BB0513
:100F40000196A11DB11D8093B8059093B905A0939A
:100F5000BA05B093BB05BF91AF919F918F913F911F
:100F60002F910F900FBE0F901F9018952FB7F894E8
:100F70006091B4057091B5058091B6059091B70563
:100F80002FBF08953FB7F8948091B8059091B905A7
:100F9000A091BA05B091BB0526B5A89B05C02F3F0F
:100FA00019F00196A11DB11D3FBF6627782F892F2B
:100FB0009A2F620F711D811D911D42E0660F771FF0
:100FC000881F991F4A95D1F708958F929F92AF92EB
:100FD000BF92CF92DF92EF92FF926B017C01D2DF42
:100FE0004B015C01C114D104E104F104E1F09BD494
:100FF000C9DF681979098A099B09683E7340810530
:10100000910580F321E0C21AD108E108F10888EEC9
:10101000880E83E0981EA11CB11CC114D104E10408
:10102000F10431F7DFCFFF90EF90DF90CF90BF90CA
:10103000AF909F908F900895789484B5826084BD1E
:1010400084B5816084BD85B5826085BD85B58160CC
:1010500085BDEEE6F0E0808181608083E1E8F0E02C
:101060001082808182608083808181608083E0E85B
:10107000F0E0808181608083E1E9F0E0808182603E
:101080008083808181608083E0E9F0E080818160FD
:101090008083E1ECF0E080818460808380818260E5
:1010A0008083808181608083E3ECF0E080818160D7
:1010B0008083E0ECF0E0808182608083E2ECF0E00D
:1010C000808181608083EAE7F0E0808184608083B2
:1010D000808182608083808181608083808180685C
:1010E00080830895615030F02091F100FC0120834D
:1010F0000196F8CF289884E68093C505089540911D
:10110000C0055091C1052091BE053091BF05421721
:101110005307B4F49091E8009570E1F39091E800E2
:1011200092FD19C08093F1008091C0059091C10596
:1011300001968F739927892B19F48EEF8093E8001D
:101140008091C0059091C10501969093C10580934F
:10115000C00581E0089580E00895CF92DF92EF927C
:10116000FF920F931F93CF93DF931F92CDB7DEB7FC
:10117000082F162FF42E862F880F8E5F9983BFDFDE
:1011800083E0BDDFE02EC02E9981D92E8C2D8E19E3
:10119000811788F4F601F7FE02C0849101C08081B6
:1011A000AEDF082F80E0ABDF8023FFEFCF1ADF0A2E
:1011B0008111ECCF01C081E00F90DF91CF911F91A1
:1011C0000F91FF90EF90DF90CF9008958091D7001E
:1011D00081608093D70080EA8093D80089B58061D0
:1011E00089BD89B5826089BD09B400FEFDCF61E08B
:1011F00070E080E090E0E9DE8091D8008F7C806133
:101200008093D8008091E000807F8093E000089573
:10121000CF93DF931F92CDB7DEB71982CE0101962F
:10122000DAD3FED4BE016F5F7F4F73D489810F90F4
:10123000DF91CF9108952FB7FC012083F894677058
:101240006093E9000895CF93DF931F92CDB7DEB787
:10125000682FCE010196EFDF8091F20099819FBF48
:101260000F90DF91CF910895FF920F931F93CF932B
:10127000DF9300D0CDB7DEB7F62E8A019091C4057A
:10128000992311F057FF03C08FEF9FEF2AC0682FFB
:10129000CE0101967A83CFDF8091F20090E0A80121
:1012A0007A81801791070CF4AC01EF2DF72FF40E23
:1012B00084E6FE1639F028988093C5059091F100D8
:1012C0009193F7CF4115510521F08091F2008823C9
:1012D00021F089818FBFCA0104C08BE68093E800AA
:1012E000F8CF0F900F90DF91CF911F910F91FF904A
:1012F0000895CF93DF931F92CDB7DEB741E050E062
:10130000BE016F5F7F4FB0DF019719F4898190E0D4
:1013100002C08FEF9FEF0F90DF91CF910895CF9391
:10132000DF931F92CDB7DEB7682FCE01019683DF22
:101330009091E800892F807295FF04C09091F2008F
:1013400080E4891B99819FBF0F90DF91CF91089511
:101350006F927F928F929F92AF92BF92CF92DF92C5
:10136000EF92FF920F931F93CF93DF931F92CDB70E
:10137000DEB7782E7B01C42EB52E8091C40588235C
:1013800069F0042F152F8AEFD82E872D8072982EA2
:101390009AE3A92E872D8074882E0FC08FEF9FEFC0
:1013A00054C0872DBCDF682E81110BC0DA94B1F3D5
:1013B00061E070E080E090E008DE0115110589F73A
:1013C0003AC0282F30E0021713070CF4602E672D67
:1013D000CE01019630DF8091E80085FF29C0262DDF
:1013E00030E0021B130B992039F06A948FEF6816D6
:1013F000B1F01092F100F9CFF701862D77FE07C00A
:10140000815058F094919093F1003196F9CF81502A
:1014100020F091919093F100FACFE20EF31E8091AB
:10142000E80085FF0FC00115110511F481100AC0F5
:1014300089818FBFC2CF5D9884E68093C6058C2DCD
:101440009B2D03C0A092E800F3CF0F90DF91CF91C6
:101450001F910F91FF90EF90DF90CF90BF90AF90D2
:101460009F908F907F906F9008951092E900109256
:10147000C1051092C0059093BF058093BE050895E5
:10148000CF92DF92FF920F931F93CF93DF9300D001
:10149000CDB7DEB7F82E8A016B0101151105A9F051
:1014A000F601F7FE02C0849101C0808149835A830E
:1014B00026DE01501109FFEFCF1ADF0A49815A8158
:1014C0008111EBCF8FEF9FEF01C0CA010F900F90FA
:1014D000DF91CF911F910F91FF90DF90CF900895F2
:1014E000BF92CF92DF92EF92FF920F931F93CF9311
:1014F000DF936C018B01EB013BEFB32E2097B9F02A
:101500007E01C134D1051CF020E4E22EF12C809143
:10151000E80082FFFCCFC8018C1B9D0B6E2D8C0D4B
:101520009D1DE0DDB092E800CE19DF09E7CFC801CC
:10153000DF91CF911F910F91FF90EF90DF90CF90AF
:10154000BF9008951F920F920FB60F921124DF9251
:10155000EF92FF920F931F932F933F934F935F93BD
:101560006F937F938F939F93AF93BF93EF93FF936B
:10157000CF93DF93CDB7DEB76C97DEBFCDBF1092B0
:10158000E9008091E80083FF12C168E0CE01459632
:10159000A9DD82EF8093E8003D8937FF05C0809187
:1015A000E80080FFFCCF03C08EEF8093E800832F1C
:1015B000807609F0E4C02E894F89D88C21110CC0A7
:1015C000303829F48091C3058093F10002C0109255
:1015D000F1001092F100E4C0842F90E09D292130A9
:1015E00049F43111DDC0019709F0DAC08091C305DB
:1015F0008D7F0AC0233059F43111D2C0019709F010
:10160000CFC08091C30582608093C305C9C02530D7
:1016100041F48091E80080FFFCCF40684093E300F4
:10162000BFC0263009F081C0EB8CFC8C22E0D212C6
:1016300027C080E090E019DFEBDD99E08E010F5FBD
:101640001F4FF801292F11922A95E9F79983DA8221
:1016500091E09E8390EA98879AEF99872091C00540
:101660003091C105275F3F4F3C832B838D83C7019A
:10167000FCDE49E050E0B80180E002DFC9DD90C047
:10168000C701F3DECDD2BE016B5E7F4F6BD20097F8
:1016900019F00CF085C088C081E0D8120EC08B8D87
:1016A0009C8D089719F481E08093BD058091BD055C
:1016B00081112CC062ED71E02EC0E3E0DE1274C037
:1016C0008F89882331F1823029F440E860E180EF8E
:1016D00091E01AC0813029F440E86BE084EE91E09B
:1016E00013C0833009F060C09BD28E010F5F1F4F83
:1016F000B80157D2F80101900020E9F73197E01BBB
:10170000F10B40E06E2FC80128DD48C060EC71E0AD
:1017100002C061E072E06115710509F445C0FB018A
:10172000449150E080E8ACDE3BC0273009F43CC077
:10173000283021F481E08093F10032C0293081F516
:10174000337091F5E1E0F1E081E021E036E3908152
:10175000992361F08093E9002093EB00919190939D
:10176000EC003093ED008F5F873089F78EE7809330
:10177000EA001092EA008F898093C40511C08B8D16
:101780009C8D73DE898D811104C0CE0145962DD1CB
:1017900005C046D2BE016B5E7F4F22D2882321F066
:1017A0008EEF8093E80003C081E28093EB006C969B
:1017B0000FB6F894DEBF0FBECDBFDF91CF91FF9182
:1017C000EF91BF91AF919F918F917F916F915F91B9
:1017D0004F913F912F911F910F91FF90EF90DF90CC
:1017E0000F900FBE0F901F9018958093E900809185
:1017F000F200882319F08AE38093E80008951F928D
:101800000F920FB60F9211242F933F934F935F9334
:101810006F937F938F939F93AF93BF93CF93EF93E8
:10182000FF93C091E1008091E100837F8093E1000C
:101830008093E100C3FF0FC01092E90081E0809324
:10184000EB001092EC0082E38093ED001092C4054F
:1018500088E08093F000C2FF18C083E0C6DF80916B
:10186000C605882339F08091C60581508093C6054E
:10187000882389F18091C505882339F08091C505B9
:1018800081508093C505882341F1C4FF10C0809129
:10189000E2008E7E81608093E2008091E1008F7E85
:1018A0008093E1008091C2058E7E806111C0C0FFEF
:1018B00016C08091E2008E7E80618093E20080916C
:1018C000E1008E7E8093E1008091C2058E7E816072
:1018D0008093C20504C05D9ACDCF289AD6CFFF91E0
:1018E000EF91CF91BF91AF919F918F917F916F9128
:1018F0005F914F913F912F910F900FBE0F901F90CE
:1019000018951092C4051092C3051092C2055EDCB2
:10191000E1EEF0E080818E7E80838DE08093E200B6
:10192000559A209A08950895CF93DF931F92CDB7CB
:10193000DEB76983DC01ED91FC910280F381E02D3B
:1019400041E050E0BE016F5F7F4F09950F90DF913E
:10195000CF910895CF93DF93EC018C859D8597FF00
:1019600004C082E0C6DC9D878C878C859D85DF91D5
:10197000CF91089583E039CFFC018485958597FD4B
:1019800005C082E060DC90E00196089582E05BDCB7
:1019900090E00895FC018485958597FD05C02FEFA3
:1019A0003FEF35872487089582E0A3CCCF93DF9360
:1019B000EC0180911201882329F083E0C9DC18161C
:1019C000190634F081E090E09B838A8380E090E008
:1019D000DF91CF910895FC0120812E5F208342E4A6
:1019E00050E065E072E080E84BCDFC012181808110
:1019F000813A51F4213209F05AC047E050E06BE0DF
:101A000071E080E03DDD66C0813209F050C02332D4
:101A100089F4838190E0982F88273281832BA0E07E
:101A2000B0E08093070190930801A0930901B0935F
:101A30000A010EC0203231F467E070E08BE091E0E3
:101A40004FDD0AC0223221F482818093120104C04A
:101A50002D7F203209F03EC080910B0190910C0146
:101A6000A0910D01B0910E01803B9440A105B105FC
:101A700001F58091120180FD1CC0809100089091B9
:101A800001089093FF0A8093FE0A87E797E79093F7
:101A90000108809300082BE088E190E00FB6F894ED
:101AA000A895809360000FBE2093600013C080E073
:101AB000089588E10FB6F89480936000109260005A
:101AC0000FBEA8958091FE0A9091FF0A909301089D
:101AD0008093000881E008951092CA051092C9050C
:101AE00088EE93E0A0E0B0E08093CB059093CC0526
:101AF000A093CD05B093CE0583E391E09093C80504
:101B00008093C7058FEF9FEF9093D4058093D30503
:101B10000895EF92FF920F931F93CF93DF937B0172
:101B2000FC01C281D38100E010E0209781F0E881C0
:101B3000F9810280F381E02DB701CE01099597FD6F
:101B400008C0080F191F0884D985C02DEECFC80121
:101B500002C08FEF9FEFDF91CF911F910F91FF9008
:101B6000EF9008950F931F93CF93DF938B01FC01A8
:101B7000C281D381209771F0E881F9810480F581D9
:101B8000E02DB801CE010995009731F40884D9857C
:101B9000C02DF0CF80E090E0DF91CF911F910F91A9
:101BA00008950F931F93CF93DF938B01FC01C281A4
:101BB000D381209771F0E881F9810680F781E02DCB
:101BC000B801CE010995080F111D0884D985C02DD3
:101BD000F0CFF8011082DF91CF911F910F910895FE
:101BE0000F931F93CF93DF938B01FC01C281D381AD
:101BF000209771F0E881F9810190F081E02DB80122
:101C0000CE010995811106C00884D985C02DF0CF79
:101C100080E001C081E0DF91CF911F910F91089585
:101C200080911B0681110DC082E08093170684E02D
:101C30008093180610921A061092190681E080937C
:101C40001B0687E196E00895CF93DF93EC018BE2CA
:101C500091E0998388831B821A82CE0152D783E454
:101C600091E0998388838CE38E8380E1898718864D
:101C70001F821E861F86188A198A1A8AFE01EC5E48
:101C8000FB4F11821082329611821082C85EDB4FA8
:101C900081E08883DF91CF910895FC01668370E035
:101CA00088EE93E00E942B18618708950F931F938D
:101CB000CF93DF93EC015AD9E62F462F572FBC0163
:101CC0008A89882351F08A859E2F981B9B8B8F8150
:101CD0009885019698878F831A8A0E851F85288993
:101CE000398940175107620773072CF40E1B023025
:101CF000A0F0B5D712C089858A019B01080F111D7C
:101D0000211D311D0E871F87288B398B4A875B87E2
:101D10006C877D8781E08A8B01C080E0DF91CF9165
:101D20001F910F9108956038710518F540345105E1
:101D300000F5E42FE695E695E695F0E04770552727
:101D4000F695FE2FEE27F795E795E60FF71FE80FBC
:101D5000F91F81E090E0042E01C0880F0A94EAF791
:101D6000222319F09489982B03C080959489982395
:101D7000948B08952F923F924F925F926F927F9231
:101D80008F929F92AF92BF92CF92DF92EF92FF928B
:101D90000F931F93CF93DF932C01EB016A0159013D
:101DA0009801241B350B37FF03C03195219531096C
:101DB000C5018C1B9D0B97FF03C0919581959109DF
:101DC000FF24F3948217930714F0F12C0AC09A2D84
:101DD0008B2D5801092F182F9C2F8D2FE601C92E0E
:101DE000D82EAC16BD0654F49C2D8D2D6801092FFC
:101DF000182F9C2F8D2FE501A92EB82E15012C1A16
:101E00003D0A38016C187D0877FE03C07194619417
:101E10007108410137FE03C08FEF881A980A959424
:101E20008794C016D10614F401E001C00FEF11270A
:101E300007FD1095AC16BD06A4F02E2DFF2019F05D
:101E4000AE01B60102C0A601BE01C2016CDF861858
:101E5000970897FE04C0C00ED11E820C931C2196D9
:101E6000E9CFDF91CF911F910F91FF90EF90DF901D
:101E7000CF90BF90AF909F908F907F906F905F902A
:101E80004F903F902F900895AF92BF92CF92DF92E4
:101E9000EF92FF920F93CF93DF936C015B017A0176
:101EA000E20EF11CEA0157FF0CC0C0E0D0E009C00F
:101EB000C417D50774F4202FAE01B501C60133DF76
:101EC0002196A70181E4E816F10494F340E450E080
:101ED000EFCFDF91CF910F91FF90EF90DF90CF90F8
:101EE000BF90AF9008958F929F92AF92BF92CF9282
:101EF000DF92EF920F931F93CF93DF936C015A0100
:101F0000102FEB014B01820E911CC815D90544F42A
:101F10000E2D212FA501BE01C601B6DF2196F5CFFA
:101F2000DF91CF911F910F91EF90DF90CF90BF90F5
:101F3000AF909F908F9008954496B62FB111BFEF48
:101F4000FC010024B193B193B193B1930394D1F701
:101F5000089560E0F1CF2F923F924F925F926F927F
:101F60007F928F929F92AF92BF92CF92DF92EF9229
:101F7000FF920F931F93CF93DF9300D000D01F9257
:101F8000CDB7DEB7C982202E312CFB01E20DF31D47
:101F9000F7FD13C1603871050CF00FC1FA01EE0DA9
:101FA000F11DF7FD0AC1403451050CF006C1DA01FC
:101FB00057FF04C0AA27BB27A41BB50BFD01E77080
:101FC000FF27FB83EA83FA0157FD3796DF0113E011
:101FD000B595A7951A95E1F7BD83AC8357FF0CC063
:101FE0001197BD83AC8348E050E0DA01EA81FB81C0
:101FF000AE1BBF0BBB83AA834E2D469546954695D7
:10200000C42ED12C4E2D477019F0FFEFCF1ADF0AE6
:1020100049014C815D815695542F4427579547952A
:10202000480F591F2C813D81F8E06F2E712C8A8159
:102030009B81681A790AC901AC81BD818A1B9B0BFF
:102040008C159D050CF0B9C02830310509F4B5C0D8
:102050002F3F9FEF39070CF4A3C0CB0100E010E045
:10206000DA01A058BF4F2D01021513050CF098C0DE
:102070008038910509F494C097FD8EC02F3FBFEFC3
:102080003B0709F494C0D801A80DB91D7A01E80EE8
:10209000F91EE981E13071F4FD01A491B0E00A80FC
:1020A00002C0AA0FBB1F0A94E2F7F701B488AB295C
:1020B000A48B28C0F981F11114C0FD01A491EA2F6D
:1020C000F0E00A8002C0EE0FFF1F0A94E2F7E095ED
:1020D000F095D7015496AC905497B12CEA21FB218E
:1020E0000FC0FD01A491EA2FF0E00A8002C0EE0FBC
:1020F000FF1F0A94E2F7D7015496BC905497EB2542
:102100005496EC93AA81BB81AB2B09F445C02730D0
:10211000310509F441C0F801E80DF91DB981B1306C
:1021200089F4E491F0E0062C02C0F595E7950A9455
:10213000E2F77201E80EF91ED7015496BC9054974D
:10214000EB2928C0B981B11115C0E491F0E0062C4B
:1021500002C0F595E7950A94E2F7E095F0957201D3
:10216000E80EF91ED7015496AC905497B12CEA2191
:10217000FB2110C0E491F0E0062C02C0F595E79534
:102180000A94E2F77201E80EF91ED7015496BC904A
:102190005497EB255496EC930F5F1F4F019664CF35
:1021A0002F5F3F4F820C931C40585F4F44CFAA8152
:1021B000BB81AB2B09F0AFCFEFCF0F900F900F90FB
:1021C0000F900F90DF91CF911F910F91FF90EF90A3
:1021D000DF90CF90BF90AF909F908F907F906F9047
:1021E0005F904F903F902F9008958F929F92AF9263
:1021F000BF92CF92EF920F931F93CF93DF935C0127
:10220000CEEEDFEF18E14C0184E1880E911C20E056
:1022100040E0612F6C1BC50150D5C5019ADECC246E
:10222000C39400E1E02E08E527E432E0AE0164E16A
:1022300070E0C50190DEC4011DD56BE170E080E067
:1022400090E00E94E507C03F31F46AEF70E080E063
:1022500090E00E94E5072196C931D105C1F66EEEE6
:1022600072E080E090E00E94E50720E040E060E05E
:10227000C501DF91CF911F910F91EF90CF90BF904B
:10228000AF909F908F9019C5CF93DF93EC016CD4E2
:1022900037D58078803839F404D52FEF4FEF6FEFC2
:1022A000CE010BD5FFCFCE01A0DF249665E0CE0195
:1022B000F0D16DE0CE01EDD1DF91CF9144C12F92ED
:1022C0003F924F925F926F927F928F929F92AF92C6
:1022D000BF92CF92DF92EF92FF920F931F93CF9313
:1022E000DF93CDB7DEB728970FB6F894DEBF0FBEE9
:1022F000CDBF9E838D832A01603871050CF06CC0C0
:10230000403451050CF068C0CB01A5E0CA9E800D99
:10231000911D1124181619060CF05EC0EC2DF0E08A
:10232000FC83EB83CA01F8E0CF9E800D911D112440
:10233000181619060CF050C0A5E02A9FC001112400
:102340005B0118861F8289509D4F9A838983BF81C4
:10235000B53041F0E981FA818F819885E80FF91F46
:10236000149101C010E0320128E0D22E10FF02C00B
:10237000F02E01C0FE2CF1100BC0E01209C0169522
:10238000DA94AB81BC816A0E7B1ED110EFCF18C0EE
:102390001501822D8A198C1590F74301882D861915
:1023A0008C1550F42F2DA401B1018D819E81BBDCD1
:1023B000BFEF8B1A9B0AF2CFEFEF2E1A3E0AE9CF3E
:1023C0008F819885019698878F83AB81BC81AA0EF7
:1023D000BB1E069709F0BBCF28960FB6F894DEBF58
:1023E0000FBECDBFDF91CF911F910F91FF90EF9066
:1023F000DF90CF90BF90AF909F908F907F906F9025
:102400005F904F903F902F9008958F929F92AF9240
:10241000BF92CF92EF920F93CF93DF93EC01262FD1
:102420006A3099F4FC01E85EFB4F2081329780818D
:10243000918138E0239F800D911D11249183808329
:10244000CC5EDB4F198218824AC06D3009F447C058
:10245000FC01EA5EFB4F408151815C018CEEA81AC1
:102460008BEFB80AF501608171814E01F8EE8F1A89
:10247000FBEF9F0AF401C080E12C01E0CE011FDFD9
:10248000F4012081422F50E0F50180819181F6E036
:102490002F9F800D911D1124F50191838083359626
:1024A00020812223E1F06AEF64039001659F300DE3
:1024B000112420583F4F281739078CF4E881F981FF
:1024C0000190F081E02D6AE0CE01DF91CF910F9174
:1024D000EF90CF90BF90AF909F908F900994DF9135
:1024E000CF910F91EF90CF90BF90AF909F908F9032
:1024F0000895FC01EC5EFB4F71836083329651833B
:10250000408308954496B6C3CF93DF931F92CDB70F
:10251000DEB76983F5D36981982F962381E09613FE
:1025200080E00F90DF91CF910895E4E6F0E08081A4
:10253000877F8083E5E6F0E08081877F808381E08C
:102540008093230608951092300682E090E0F7D53C
:102550008111EBCF0895CF92DF92EF92FF921F93FC
:10256000CF93DF9390913106891708F063C067FD20
:1025700061C0E82FF0E0E953F74F1491E62FF0E047
:10258000603330F4E956F74FE491CE2FD0E006C027
:10259000EE0FFF1FE956F84FC591D4916E01E12C63
:1025A000F12C60E074E284EF90E0A701960188D5F9
:1025B00021503109410951092115310581E04807B0
:1025C000510568F060E970ED83E090E0A7019601A5
:1025D00077D5215031094109510993E001C091E0BB
:1025E0001130C9F0133031F580919100887F892B2B
:1025F000809391003093990020939800D0932F06F8
:10260000C0932E0681E080932D0680917100826038
:10261000809371000FC080918100887F892B809307
:102620008100309389002093880080916F00826040
:1026300080936F00DF91CF911F91FF90EF90DF901B
:10264000CF900895E82FF0E0E953F74FE491E1309F
:1026500019F0E33069F0089580916F008D7F8093C9
:102660006F0020913B06E0913C06F0913D0608C0CA
:1026700010922D0620913406E0913506F091360631
:10268000808190E030E020953095822393238083F1
:102690000895CF93DF93C62F80913106823009F4DD
:1026A00068C0E82FF0E0E953F74FD491A82FB0E0CD
:1026B000AE5CB94F6C938F5F8093310661E08C2FD5
:1026C0000AD4D13081F1D33009F053C01092900078
:1026D0001092910080919100886080939100809188
:1026E00091008160809391006C2F70E0FB01E95DA7
:1026F000F64F249130E0220F331F2A5B364FF90149
:10270000859194919093360680933506FB01E85F9E
:10271000F64F6491609334066CE380E01CDF80E048
:10272000DF91CF918FCF1092800010928100809125
:102730008100886080938100809181008160809316
:1027400081006C2F70E0FB01E95DF64F249130E0D1
:10275000220F331F2A5B364FF90185919491909394
:102760003D0680933C06FB01E85FF64F6491609361
:102770003B06DF91CF910895CF93C0E08091310661
:10278000C81720F48C2F5EDFCF5FF8CF1092300691
:10279000CF910895E0912406F0912506BF016F5F67
:1027A0007F4F7093250660932406A4919A2F907F03
:1027B0008A2F8F70903811F445DFECCF903959F49F
:1027C000AF014E5F5F4F5093250640932406FB01F7
:1027D0006491C1DEDFCF903E49F48091260690914E
:1027E00027069093250680932406D4CF903F19F4B2
:1027F00010923006089597FDCDCFAF014E5F5F4F29
:102800005093250640932406FB016491262F30E067
:102810003A2BA0912E06B0912F0674D46C507E4FA7
:102820008F4F9F4F28EE33E040E050E027D42093B5
:1028300028063093290640932A0650932B06809150
:10284000280690912906A0912A06B0912B06892B83
:102850008A2B8B2B61F481E090E0A0E0B0E08093C4
:10286000280690932906A0932A06B0932B06089574
:1028700080912D06882349F090913406E091350629
:10288000F0913606808189278083809130068823E5
:1028900021F18091280690912906A0912A06B091F5
:1028A0002B06892B8A2B8B2BC1F0809128069091C7
:1028B0002906A0912A06B0912B060197A109B1091A
:1028C0008093280690932906A0932A06B0932B069E
:1028D000892B8A2B8B2B09F45DCF08954F925F9241
:1028E0006F927F928F929F92AF92BF92CF92DF9220
:1028F000EF92FF92CF93DF93EB0149015A0181E000
:1029000080932C062B01612C712C60E072E18AE728
:1029100090E0A3019201D4D369017A0181E0C81A41
:10292000D108E108F108C114D10481E0E806F104FE
:1029300080F068E478EE81E090E0A3019201C0D3DA
:1029400069017A0181E0C81AD108E108F10893E031
:1029500001C091E080918100887F892B8093810064
:1029600081149104A104B10461F0DE01AA0FBB1F20
:10297000A5019401D6D328EE33E040E050E07ED3A9
:1029800003C02FEF3FEFA901D0928900C0928800C9
:1029900020933706309338064093390650933A0611
:1029A00080916F00826080936F00DF91CF91FF90E4
:1029B000EF90DF90CF90BF90AF909F908F907F90DF
:1029C0006F905F904F9008951F920F920FB60F92E5
:1029D00011242F933F938F939F93AF93BF93EF93C4
:1029E000FF9380912C06882309F44BC08091370611
:1029F00090913806A0913906B0913A06892B8A2B1E
:102A00008B2B51F190913B06E0913C06F0913D06F5
:102A10008081892780838091370690913806A09124
:102A20003906B0913A06181619061A061B0694F5CF
:102A30008091370690913806A0913906B0913A06F8
:102A40000197A109B1098093370690933806A093A6
:102A50003906B0933A061EC010922C0680916F0082
:102A60008D7F80936F0020913B06E0913C06F091B2
:102A70003D06808190E030E02095309582239323BD
:102A800008C090913B06E0913C06F0913D068081A4
:102A900089278083FF91EF91BF91AF919F918F9193
:102AA0003F912F910F900FBE0F901F9018951F927E
:102AB0000F920FB60F9211242F933F934F935F9372
:102AC0006F937F938F939F93AF93BF93EF93FF93F6
:102AD000CFDEFF91EF91BF91AF919F918F917F9149
:102AE0006F915F914F913F912F910F900FBE0F907B
:102AF0001F9018958EBD00000DB407FEFDCF8EB55A
:102B000008950895E0914006F091410680819091EA
:102B10003E06892B8083E0914206F0914306908126
:102B200080913F068095892380830895E091420635
:102B3000F0914306808190913F06892B8083E0913C
:102B40004006F0914106908180913E068095892350
:102B50008083E0914206F0914306908180913F0688
:102B60008095892380830895CF93DF9322D2C6ED89
:102B7000D8E0BE01FE01849122966F5F7F4FFB017A
:102B80006491882311F0A7D1F4CF61E086E0DCD115
:102B900061E070E080E090E00E94E50760E086E0A0
:102BA000D3D16AE070E080E090E00E94E50761E048
:102BB00086E0CAD1E3E3F9E0E491F0E0EE0FFF1F15
:102BC000EA5BF64F85919491909343068093420679
:102BD000E4E1F9E0E491E0933F06EBE2F9E0E4910F
:102BE000F0E0EE0FFF1FEA5BF64F85919491909312
:102BF000410680934006ECE0F9E0E491E0933E0664
:102C00008CB58C7F8CBD8DB581608DBD8FDFC9EC9F
:102C1000D8E0F8E0C63DDF0729F0FE0184916ADFC5
:102C20002196F7CF6FDF809164008160809364000C
:102C30008091640082608093640080916400806869
:102C4000809364008091640080648093640080912C
:102C50006500816080936500DF91CF91089583B70F
:102C6000817F83BF83B7816083BF889583B78E7F61
:102C700083BF0895FC0120812EBD21E030E0FC01DE
:102C8000E20FF31F40810DB407FEFDCF4EBD2F5F55
:102C90003F4F2115F4E03F0791F70DB407FEFDCF3C
:102CA0000895CF93DF93C0E0D4E080E023DF219745
:102CB0002097D9F7DF91CF9108950F931F93CF936A
:102CC000DF9300D0CDB7DEB70FEF10E0C801861B51
:102CD0009109BC018AE02A8349832DD04981B8013A
:102CE000641B71098BE027D02A81B801621B71092E
:102CF00089E00F900F90DF91CF911F910F911BC032
:102D00008FB14CB123B150E0409550954074552798
:102D100033E0559547953A95E1F730E020953095A9
:102D2000207133273595279535952795242B809548
:102D3000807F822B08951F93CF93DF93182FEB0191
:102D400061E0C9D0209711F460E004C0CF3FD10505
:102D500031F461E0812FDF91CF911F91F5C0E12F18
:102D6000F0E0E751F74F449150E0FA013197EF302E
:102D7000F10508F06BC0EA5AFF4FBEC184B5806808
:102D800084BDC7BD68C084B5806284BDC8BD63C052
:102D900080918000806880938000D0938900C093E8
:102DA000880059C080918000806280938000D09319
:102DB0008B00C0938A004FC0809180008860809310
:102DC0008000D0938D00C0938C0045C0809190000E
:102DD000806880939000D0939900C09398003BC086
:102DE00080919000806280939000D0939B00C0936C
:102DF0009A0031C080919000886080939000D093B9
:102E00009D00C0939C0027C08091C0008068809383
:102E1000C0008091C0008F7B8093C000C093CF0022
:102E20001AC08091C00080628093C000C093D0001F
:102E300012C08091C20088608093C2008091C2005D
:102E40008B7F8093C200C093D20005C0C038D105EB
:102E50000CF07FCF79CFDF91CF911F91089590E053
:102E6000FC013197EF30F105A8F5EB59FF4F44C154
:102E7000809180008F7703C0809180008F7D809348
:102E80008000089580918000877FF9CF84B58F7787
:102E900002C084B58F7D84BD0895809190008F77A6
:102EA00007C0809190008F7D03C080919000877F44
:102EB0008093900008958091C0008F7703C0809127
:102EC000C0008F7D8093C00008958091C200877FED
:102ED0008093C2000895CF93DF9390E0FC01E85FF8
:102EE000F64F2491FC01E95DF64F8491882349F166
:102EF00090E0880F991FFC01EC5AF64FA591B49110
:102F00008A5B964FFC01C591D4919FB7611108C0AF
:102F1000F8948C91209582238C93888182230AC017
:102F2000623051F4F8948C91322F309583238C9336
:102F30008881822B888304C0F8948C91822B8C9397
:102F40009FBFDF91CF9108950F931F93CF93DF938E
:102F50001F92CDB7DEB7282F30E0F901E751F74FC8
:102F60008491F901E85FF64F1491F901E95DF64F9C
:102F700004910023C1F0882319F0698370DF69810F
:102F8000E02FF0E0EE0FFF1FEA5BF64FA591B49142
:102F90009FB7F8948C91611103C01095812301C0F3
:102FA000812B8C939FBF0F90DF91CF911F910F9139
:102FB0000895CF93CFB7F89480914406811123C030
:102FC000E8E3F9E08491E9E1F9E09491E82FF0E099
:102FD000EE0FFF1FEC5AF64FA591B4918C91892307
:102FE00019F461E081E1B0DF61E081E174DF8CB56B
:102FF00080618CBD8CB580648CBD61E08FE06BDF3F
:1030000061E080E168DF809144068F5F8093440631
:10301000CFBFCF910895991B79E004C0991F9617EF
:1030200008F0961B881F7A95C9F780950895AA1B0A
:10303000BB1B51E107C0AA1FBB1FA617B70710F0A3
:10304000A61BB70B881F991F5A95A9F780959095D5
:10305000BC01CD01089597FB072E16F4009406D00D
:1030600077FD08D0E4DF07FC05D03EF4909581950C
:103070009F4F0895709561957F4F0895A1E21A2E94
:10308000AA1BBB1BFD010DC0AA1FBB1FEE1FFF1F0C
:10309000A217B307E407F50720F0A21BB30BE40B5C
:1030A000F50B661F771F881F991F1A9469F76095A3
:1030B0007095809590959B01AC01BD01CF0108955D
:1030C000052E97FB16F400940FD057FD05D0D6DFE0
:1030D00007FC02D046F408C05095409530952195E4
:1030E0003F4F4F4F5F4F0895909580957095619534
:1030F0007F4F8F4F9F4F0895EE0FFF1F0590F49164
:10310000E02D0994A29FB001B39FC001A39F700D51
:10311000811D1124911DB29F700D811D1124911DDF
:103120000895F0DFA59F900DB49F900DA49F800D92
:10313000911D1124089581E090E0F89408C0F99958
:10314000FECF92BD81BDF89A992780B50895F89475
:02315000FFCFAF
:1031520000C18081000000FFFFFFFF00E1000000CE
:103162000000006E616E6F736571006279204069C4
:103172006E615F616E6900000000005B071C070062
:10318200000000940CD60CBC0CCA0CAA0CBA0C00A1
:0831920000000005121C0700FB
:00000001FF
